:020000040800F2
:10000000D85100205D0200088D140008AF0D0008D3
:100010008B140008F1080008811B00080000000094
:100020000000000000000000000000009D0100082A
:10003000F308000800000000F90100087718000824
:1000400077020008770200087702000877020008AC
:10005000770200087702000877020008770200089C
:10006000770200087702000877020008770200088C
:10007000770200087702000877020008770200087C
:10008000770200087702000877020008770200086C
:10009000770200087702000877020008770200085C
:1000A000770200087702000877020008770200084C
:1000B0007702000877020008751900087702000827
:1000C000770200087702000877020008770200082C
:1000D000770200087702000877020008770200081C
:1000E000F508000877020008770200087702000888
:1000F00077020008770200087702000877020008FC
:1001000077020008770200087702000877020008EB
:100110007702000877020008811900089D1900087D
:1001200077020008770200087702000877020008CB
:1001300077020008770200087702000877020008BB
:1001400077020008770200087702000877020008AB
:10015000770200087702000877020008770200089B
:10016000770200087702000877020008770200088B
:1001700077020008770200087702000800000000FC
:100180007702000877020008DFF80CD000F038FB97
:1001900000480047FD250008D85100202C4B196865
:1001A0000868B0E8F04F80F30988BFF36F8F4FF015
:1001B000000080F3118870470000000008480068C4
:1001C000006880F308884FF0000080F3148862B65E
:1001D00061B6BFF34F8FBFF36F8F00DF00BF00BF6B
:1001E00008ED00E0DFF80C00016841F470010160E7
:1001F000704700BF88ED00E0EFF30980BFF36F8F19
:10020000134B1A681EF0100F08BF20ED108A20E96A
:10021000F04F106009B44FF0500080F31188BFF325
:100220004F8FBFF36F8F03F047F84FF0000080F35C
:10023000118809BC19680868B0E8F04F1EF0100F6B
:1002400008BFB0EC108A80F30988BFF36F8F704746
:1002500010000020EFF3058070470000064880473B
:1002600006480047FEE7FEE7FEE7FEE7FEE7FEE79B
:10027000FEE7FEE7FEE7FEE76519000889010008D2
:100280002DE9F05F0546002092469B4688460646CB
:10029000814640241BE0284641464746224600F05E
:1002A00018FA53465A46C01A914110D311461846BF
:1002B000224600F0FFF92D1A67EB01084F4622464F
:1002C0000120002100F0F6F917EB00094E41201E35
:1002D000A4F10104DFDC484631462A464346BDE826
:1002E000F09F10B5431A934209D28318881803E08F
:1002F00010F8011D03F8011D521EF9D210BD40EA8D
:1003000001039B0703D009E008C9121F08C0042A93
:10031000FAD203E011F8013B00F8013B521EF9D27A
:1003200010BDD2B201E000F8012B491EFBD270478C
:100330000022F6E710B513460A4604461946FFF7B1
:10034000F0FF204610BD2DE9FE4F804681EA0300F4
:10035000C00F0C46009021F0004123F00045B8EB9F
:100360000200A94105D24046214690461C460B4654
:10037000024623F00040104347D0270DC7F30A0080
:10038000C3F30A510290401A019040286BDAC3F37C
:10039000130040F4801B0098924620B10023D2EB5A
:1003A000030A63EB0B0B01985946C0F1400250461B
:1003B00000F080F906460D4650465946019A00F075
:1003C00098F910EB08006141002487EA115284EA91
:1003D000E7731A4340D0009A62B3019A012A4FEAA8
:1003E000075215DC001B61EB02014FF0004202EAEC
:1003F0000752CDE90042001C41F5801132462B46E0
:1004000000F098F903B0BDE8F08F40462146F9E7C7
:10041000001B61EB0201001C41F5801300185B41D9
:100420002018A2F5001747EB030140EAD570B61972
:100430006D4111E06D084FEA360645EAC0754FEA96
:100440000752001B61EB0201001C41F580114908B5
:100450004FEA30000019514132462B4603B0BDE847
:10046000F04F00F058B90098012240000023D0EB73
:10047000020263EBE073009821464FEAE074B8EBA8
:10048000000061EB0401E9E783F000435BE781F0E2
:10049000004158E72DE9FE4F81EA030404F00044CF
:1004A00021F0004100944FF0000B23F0004350EA8C
:1004B00001045ED052EA03045BD0C3F30A54C1F3D3
:1004C0000A552C44A4F2F3340194A0FB0254C1F366
:1004D000130141F48011C3F3130343F4801301FBB0
:1004E000024400FB034E840A970A44EA815447EA17
:1004F0008357A4FB076802958D0A05FB07854FEA21
:10050000932C04FB0C542705029D4FEA065847EA3A
:100510001637B5EB08056EEB070C870E920E47EA0F
:10052000811742EA8312A7FB0201B6EB0B0164EBD1
:1005300000042B0D43EA0C335E1844EB1C50DA46E2
:100540005146E7FB0201C5F313044FEA0B3343EABC
:1005500014534FEA0432019C43EA0603A4F10C044D
:100560000294009CCDE900B400F0E4F803B0BDE8CB
:10057000F08F00200146F9E72DE9F04D81EA0304F0
:1005800004F0004B21F0004514464FF0000A23F020
:10059000004150EA050220D054EA01021DD0C5F303
:1005A0000A570246C5F31303C1F31300C1F30A56F9
:1005B00040F4801543F48013A7EB0608101BD646C1
:1005C00008F2FD3873EB050002D308F1010801E0E1
:1005D00092185B41B8F1000F03DA00200146BDE834
:1005E000F08D00204FF48011064684460EE0171B64
:1005F00073EB050705D3121B63EB050306434CEAB7
:10060000010C49084FEA300092185B4150EA01079B
:10061000EDD152EA030012D082EA040083EA050118
:10062000084305D0101BAB4106D20122002306E08F
:1006300000224FF0004302E06FF0010253101AEB6A
:1006400006004CEB085110EB0A0041EB0B01BDE832
:10065000F04D00F060B8000030B5041E71F10004E8
:1006600004DB4FF00044404264EB0101141E73F1BF
:10067000000405DB1C464FF00043524263EB0403C9
:10068000994208BF904230BD30B50B46014600206C
:100690002022012409E021FA02F59D4205D303FA44
:1006A00002F5491B04FA02F52844151EA2F10102C5
:1006B000F1DC30BD202A04DB203A00FA02F10020F0
:1006C00070479140C2F1200320FA03F31943904090
:1006D0007047202A04DB203A21FA02F000217047FB
:1006E00021FA02F3D040C2F120029140084319469A
:1006F0007047202A06DBCB17203A41FA02F043EA82
:10070000E07306E041FA02F3D040C2F120029140CA
:1007100008431946704710B5141E73F1000408DA37
:10072000401C41F1000192185B411A4301D120F0B5
:10073000010010BD2DE9F04D92469B4611B1B1FA72
:1007400081F202E0B0FA80F220329046FFF7B2FF69
:1007500004460F4640EA0A0041EA0B0153465A4656
:10076000084313D0114653EA010019D0C8F14002E2
:100770005046FFF7AEFF05460E46504659464246E4
:10078000FFF798FF084305D0012004E020463946D2
:10079000BDE8F08D0020054346EAE0762C43374360
:1007A0000A986305E40AA0EB08000022FD0A44EA67
:1007B00047540A3002D500200146E9E70105101927
:1007C0006941DDE9084500196941BDE8F04DA2E73E
:1007D000C1F30A52C1F3130140F2FF3341F4801117
:1007E0009A4202DA00200146704740F233439A42AF
:1007F000A2F2334202DC5242FFF76BBFFFF75ABF4F
:10080000064C074D06E0E06840F0010394E807005D
:1008100098471034AC42F6D3FFF7BAFC3C3D0008D1
:100820005C3D000830B593B000240F94109414215F
:1008300068461194FFF77CFD0B940C940D941821DD
:1008400005A80E94FFF774FD2448016841F48071F7
:100850000160006800F4807012902048143801682C
:1008600041F001010160006805A900F0010012904B
:1008700006200590032006900994194800F0BCFB5F
:10088000184D0F9410940FA92846119400F012FBF4
:10089000009401940294039469462846049400F05D
:1008A00023FBA86840F48060A8604FF48030CDE955
:1008B0000B040BA90C4800F0CDFA0C4C691522462C
:1008C000284600F039FB00222146284600F04CFB68
:1008D000A86840F00100A86013B030BD4438024061
:1008E00000000240002001400023014001003002CE
:1008F000FEE7704705494FF480600B6830EA030259
:1009000003D1034B01225A7008607047143C014028
:10091000900000200248816802781144816070478D
:10092000000000200B4810B5016841F4007101601F
:10093000016841F480610160016841F480710160E7
:10094000032000F09FF80F2000F006F800F050F8A8
:10095000002010BD003C024030B505461F4887B05E
:100960000024016841F004010160006806A900F05C
:100970000400009001A800F097F80498A8B100F0D6
:10098000B3F840001649174AB0FBF1F11648491E6A
:10099000026040F2E732C0E90324C0E90114846137
:1009A00000F0B4F8040003D015E000F09DF8E9E78A
:1009B0000D4800F015F904000DD11E2000F034F8A8
:1009C000102D07D2002229461E2000F03BF80748D0
:1009D000056000E0012407B0204630BD40380240E9
:1009E00040420F0000080040B80000200400002032
:1009F0000C4882B0016841F480410160006800F455
:100A0000804000900748001F016841F0805101605C
:100A10000068002200F0805000900F21901E02B06C
:100A200000F010B844380240002809DB00F01F0233
:100A3000012191404009800000F1E020C0F8001140
:100A400070470000F0B40E4B1B680C46C3F3022342
:100A5000C3F10705042D00D90425191D072901D26A
:100A6000002300E0DB1E012606FA05F1491E2140A5
:100A700099409E40761E16403143F0BC01F002B909
:100A80000CED00E0064900F0070208684FF6FF038E
:100A9000184040EA0220034A1043086070470000F3
:100AA0000CED00E00000FA050F2202600C4A13680A
:100AB00003F003034360136803F0F00383601368DB
:100AC00003F4E053C36012684FF4E05303EAD20228
:100AD00002610448006800F00700086070470000E9
:100AE00008380240003C0240044805490068096893
:100AF000044AC1F38221515CC84070470C000020B9
:100B000008380240323D00087047704710B50400B5
:100B100003D094F83D0010B107E0012010BD002083
:100B200084F83C00204600F01EF8022084F83D00C6
:100B3000211D206800F054FF012084F8460084F84D
:100B40003E0084F83F0084F8400084F8410084F8B7
:100B5000420084F8430084F8440084F8450084F897
:100B60003D00002010BD704790F83D10012901D0D4
:100B700001207047022180F83D1000681149884229
:100B800014D0B0F1804F11D00F4988420ED00F49D8
:100B900088420BD00E49884208D00E49884205D0C1
:100BA0000D49884202D00D49884204D1816801F084
:100BB0000701062903D0016841F00101016000200E
:100BC00070470000000001400004004000080040A1
:100BD000000C0040000401400040014000180040AB
:100BE00090F83D10012901D001207047022180F8C2
:100BF0003D100168CA6842F00102CA6000681149EC
:100C0000884214D0B0F1804F11D00F4988420ED0E5
:100C10000E4988420BD00E49884208D00D498842BF
:100C200005D00D49884202D00C49884204D1816820
:100C300001F00701062903D0016841F001010160BC
:100C40000020704700000140000400400008004000
:100C5000000C00400004014000400140001800402A
:100C600070472DE9F04104460068C66805694FF0F9
:100C70000007A90713D5B10711D5F91E016101209D
:100C80002077206880698007204602D0FFF7E8FFC0
:100C900004E000F07EF8204600F07CF82777680733
:100CA00016D5700714D521686FF004000861022082
:100CB00020772068806910F4407F204602D0FFF73B
:100CC000CFFF04E000F065F8204600F063F82777D6
:100CD000280715D5300713D521686FF00800086183
:100CE000042020772068C0698007204602D0FFF7E3
:100CF000B7FF04E000F04DF8204600F04BF82777EE
:100D0000E80616D5F00614D521686FF010000861CA
:100D1000082020772068C06910F4407F204602D068
:100D2000FFF79EFF04E000F034F8204600F032F8B0
:100D30002777E80708D0F00706D021686FF0010098
:100D40000861204600F028F8280608D5300606D5A8
:100D500021686FF0800008612046FFF7D5FE680625
:100D600008D5700606D521686FF04000086120465E
:100D700000F01CF8A8060AD5B00608D521686FF067
:100D8000200008612046BDE8F041FFF7BEBEBDE887
:100D9000F08170477047000000680349884201D124
:100DA000FFF7B8BD70470000000800407047FEE73D
:100DB00030B587B018216846FFF7BAFA012000F075
:100DC0000FF901240025CDE900456946084804943F
:100DD00000F012F9082000F003F9AA20CDE900057F
:100DE00069460494034800F007F907B030BD0000DD
:100DF00000000240000C024000B587B01821684690
:100E0000FFF796FA0C48016841F010010160006894
:100E10004FF4604100F01000069008480A04826117
:100E2000009101210022CDE90112CDE9032169469B
:100E300000F0E2F807B000BD303802400010024078
:100E4000034A516921F4604141EA403050617047E2
:100E50000010024030B5134C4B680022A468124DBC
:100E600004F00104AD6805F001052C430F4DAD6899
:100E700005F001052C4302D00122104630BD0C4D77
:100E800053B10C681C43D1E902310B4341681C4348
:100E900029400C434460F0E7436809682B400B434A
:100EA0004360EAE7002001400021014000220140A8
:100EB000E010FCFF30B58368002213F0010F02D070
:100EC0000122104630BD8C680B6823434468054DF1
:100ED0002C40234343608368496823F400630B4339
:100EE0008360EEE7FFFEFFFC30B54B6884680022AC
:100EF00014F0010F02D00122104630BD002B4368D0
:100F000023F4684301D08C6823434360D1E9033460
:100F100023438468074D2C400D6805F070652C4311
:100F2000234383604968C36A23F470030B43C3629D
:100F3000E2E70000FDFCFFC010B54FF4407494FAE6
:100F4000A4F401F44073B4FA84F4E34000EB8300AA
:100F5000C36A01F01F011F248C4002F01F02A3434B
:100F60008A401343C36210BD70B54FF0007494FA09
:100F7000A4F401F00073B4FA84F4E34000EB8300BE
:100F8000C3684FF0F87494FAA4F501F0F871B5FA5B
:100F900085F521FA05F50726AE4094FAA4F4B4FAD3
:100FA00084F4E140B3438A401343C36070BD000042
:100FB000044908B50A6802430A60096801400091C3
:100FC00008BD000030380240044908B50A680243F1
:100FD0000A6009680140009108BD000030380240F5
:100FE000044908B50A6802430A6009680140009193
:100FF00008BD000030380240F0B50A680F2692FAAA
:10100000A2F2B2FA82F303248AE001279F4015EA94
:1010100007027DD04D68012D01D0022D1BD18D68B6
:10102000876892FAA2FCBCFA8CFC4FEA4C0C04FADA
:101030000CFC27EA0C0792FAA2FCBCFA8CFC4FEAE3
:101040004C0C05FA0CF52F438760CD684768554373
:1010500097432F4347600F69D0F80CC092FAA2F56E
:10106000B5FA85F54FEA450E04FA0EF52CEA050CA3
:1010700092FAA2F5B5FA85F56D00AF404CEA070C7F
:10108000C0F80CC04D68022D33D192FAA2F5B5FA22
:1010900085F5082D15D2D1F814C0056A92FAA2F789
:1010A000B7FA87F7BF0006FA07F7BD4392FAA2F72F
:1010B000B7FA87F7BF000CFA07FC45EA0C05056292
:1010C00017E0D1F814E0476A150A95FAA5FCBCFAB6
:1010D0008CFC4FEA8C0C06FA0CFC95FAA5F5B5FAD7
:1010E00085F5AD0027EA0C070EFA05FE47EA0E0764
:1010F00047624D68076892FAA2FCBCFA8CFC4FEA82
:101100004C0C04FA0CFE27EA0E0792FAA2F200E059
:1011100005E0B2FA82F2520095402F4307605B1C53
:101120000A681546DA407FF470AF0020F0BD000079
:1011300001490860704700000C000020F0B502680B
:10114000254B264D264E274F274C4FF0804C98427A
:1011500009D0604507D0A84205D0B04203D0B842BC
:1011600001D0A04205D1D1F804E022F0700242EA99
:101170000E0298421BD0604519D0A84217D0B04249
:1011800015D0B84213D0A04211D0184DA8420ED0AD
:10119000174DA8420BD0174DA84208D0164DA842B3
:1011A00005D0164DA84202D0154DA84203D1CD68F6
:1011B00022F440722A4302608A68C2620A8882620C
:1011C000984201D0A04201D109690163416941F00F
:1011D000010141610020F0BD000001400004004019
:1011E00000080040000C00400004014000400140A5
:1011F000004401400048014000180040001C00402D
:1012000000200040012919D0042919D0102919D033
:10121000402919D0B1F5807F18D0B1F5806F17D073
:1012200006210C4A1830525C10440268094BDB1D41
:101230005B5C042199408A43026070470021F0E71B
:101240000121EEE70221ECE70321EAE70421E8E7C8
:101250000521E6E7243D0008012919D0042919D009
:10126000102919D0402919D0B1F5807F18D0B1F5D7
:10127000806F17D006210C4A1830525C1044026867
:10128000094BDB1D5B5C082199400A4302607047F3
:101290000021F0E70121EEE70221ECE70321EAE774
:1012A0000421E8E70521E6E7243D0008F0B5012622
:1012B00000236E4C6E4D012908D010293BD0B1F5AA
:1012C000807F73D0B1F5805F6ED1A6E0016A21F016
:1012D00001010162016A46688769D2F800C027F0FF
:1012E000730747EA0C07D2F810C021F0020141EA67
:1012F0000C01D2F804C021F0010141EA0C01A04226
:1013000001D0A84212D1546921F0080141EA8401B8
:10131000946821F0040141EA8401956926F48074FF
:101320002C43D56924F4007444EA4506466087617D
:10133000D26842636FE0016A21F010010162066A1F
:1013400041688769D2F800C027F4E64747EA0C27CE
:10135000D2F810C026F0200646EA0C16D2F804C0D7
:1013600026F0100646EA0C16A04201D0A84213D17E
:10137000556926F0800444EA8514956824F04004F9
:1013800044EA8516946921F4806141EA8401D469B4
:1013900021F4006141EAC40141608761D168816341
:1013A00061E003E000E01E463046F0BD016A21F432
:1013B00080710162016A4668C769D2F800C027F0EF
:1013C000730747EA0C07D2F810C021F4007141EA14
:1013D0000C21D2F804C021F4807141EA0C21A04212
:1013E00001D0A84213D1546921F4006141EA84215B
:1013F000946821F4806141EA8421956926F480543F
:1014000044EA0514D56924F4005444EA45164660BC
:10141000C761D268C2630162C5E7016A21F48051E5
:101420000162066A4168C769D2F800C027F4E6473E
:1014300047EA0C27D2F810C026F4005646EA0C36CC
:10144000D2F804C026F4805646EA0C36A04201D0F9
:10145000A84204D1946921F4804141EA8411416099
:10146000C761D168016406629DE700000000014089
:101470000004014000F0A2BB10B58020FFF798FDEA
:10148000BDE810400120FFF793BDFEE7FEE7000036
:1014900010B50021074C0A46002004EBC1131A5472
:1014A000401CC0B28028FAD3491CC9B20829F3D322
:1014B00010BD0000D449002000B587B000214FF4D2
:1014C0007A720020401C9042FCD3491C9142F8D310
:1014D00018216846FEF72CFF0F48016841F0100103
:1014E000016000684FF4A06100F0100006900B4806
:1014F0000A048261009101210322CDE901120391C6
:1015000004916946FFF778FD012000F0B5F801204D
:1015100000F0C0F807B000BD3038024000100240B3
:1015200070B500240646802525FA04F0304000D02E
:10153000012000F0AFF8012000F09EF8002000F03C
:101540009BF8641CE4B2082CEED3012000F094F860
:10155000BDE87040002000F08FB810B5012000F009
:1015600099F8012000F088F8002000F093F8BDE819
:101570001040002000F080B810B5002000F08AF87C
:10158000012000F079F8BDE81040012000F082B899
:1015900010B5FFF791FFAE2000F08AF8D52000F0DB
:1015A00087F8802000F084F8A82000F081F83F2020
:1015B00000F07EF8D32000F07BF8002000F078F8EF
:1015C000402000F075F8A12000F072F8C82000F06B
:1015D0006FF8DA2000F06CF8122000F069F8812032
:1015E00000F066F8CF2000F063F8D92000F060F832
:1015F000F12000F05DF8DB2000F05AF8302000F018
:1016000057F8A42000F054F8A62000F051F88D20DF
:1016100000F04EF8142000F04BF8AF2000F048F82E
:10162000FFF736FFBDE8104000F012B810B50C46C9
:1016300040F0B00000F03CF8102040EA141000F038
:1016400037F804F00F00BDE8104000F031B800009A
:1016500070B5084D002400212046FFF7E7FF05EB99
:10166000C410802100F035F8641CE4B2082CF2D3D9
:1016700070BD0000D449002005494FF4806208B1D4
:101680008A6102E04FF080608861012000F08ABF2B
:101690000010024005494FF4807208B18A6102E0EF
:1016A0004FF080708861012000F07CBF0010024084
:1016B00010B50446FFF751FF7820FFF731FF0020F7
:1016C000FFF72EFF2046FFF72BFFBDE81040FFF786
:1016D00053BF70B50D460646FFF73FFF7820FFF772
:1016E0001FFF4020FFF71CFF002404E0305DFFF7E0
:1016F00017FF641CE4B2AC42F8D3BDE87040FFF7BA
:101700003BBF00000448016A21F480710162016A54
:1017100021F4805101627047000400400448016ACE
:1017200041F480710162016A41F4805101627047A5
:1017300000040040F0B595B014210EA8FEF7F8FDA6
:1017400020216846FEF7F4FD182108A8FEF7F0FDF9
:101750003648016841F0020101600068002500F090
:10176000020013902920ADF838003120CDE90F5048
:101770002F4C0EA920461195FFF7E0FC206820F0C1
:1017800080002060A61531462046FFF765FDA714AE
:1017900039462046FFF760FD6020CDE9000502953F
:1017A00003956A46314620460495FFF77FFD702079
:1017B00000906A46394604952046FFF777FD31468A
:1017C0002046FFF71FFD39462046FFF71BFD6068E6
:1017D00020F070006060A06820F08000A0601348D6
:1017E0001038016841F002010160006808A900F0AA
:1017F00002001390032008900220CDE90A05CDE9EC
:101800000C5009900B48FFF7F7FB206840F00100EF
:101810002060206A40F480702062206A40F480508A
:101820002062E563256415B0F0BD00004038024039
:101830000004004000040240642800D964203221E2
:1018400010FB01F06421B0FBF1F00249C8630864A9
:10185000704700000004004000244FF4FA75641C37
:10186000E4B2062C00D900242046FFF7E9FA284606
:1018700001F06EFCF3E710B54FF0E020006902F0D4
:1018800093F8012803D0BDE8104001F0C1BD10BDA0
:1018900070B52E48016821F0070141F00501016093
:1018A000016801F007010529FAD12949086840F4C7
:1018B000804008602748026842F480320260026873
:1018C000C2F34042002AFAD0224A234B121D146868
:1018D000224D2C4023431360136823F440331360DC
:1018E000026842F0807202600268C2F34062002A1D
:1018F000FAD04868C0F380300028FAD01548083084
:10190000016821F0F0010160016821F4E05141F427
:10191000A0510160016821F4604141F4004101607F
:10192000016821F0030141F002010160016801F04A
:101930000C010829FAD10A48FFF7FAFB0F20FFF73C
:101940000BF8002801D072B6FEE770BD003C0240E3
:101950000070004000380240195440000080BFFF72
:10196000007A030A0248016841F47001016070477F
:1019700088ED00E00148FFF774B90000B8000020CE
:1019800010B5054C206910F0010F04D000F0C0F82C
:101990006FF00100206110BD0010004010B5064C32
:1019A000206910F0010F05D004A000F05BF96FF082
:1019B0000100206110BD00000014004054494D3763
:1019C000E6ADA3E59CA8E8BF90E8A18C2CE4BC9808
:1019D000E58588E7BAA7E4B8BA3A340D0A000000F2
:1019E000F0B50268294C2A4D2A4E2B4F2B4B4FF055
:1019F000804CA04209D0604507D0A84205D0B04233
:101A000003D0B84201D0984204D122F0700E4A6847
:101A100042EA0E02A0421BD0604519D0A84217D05E
:101A2000B04215D0B84213D0984211D01C4DA842F4
:101A30000ED01C4DA8420BD01B4DA84208D01B4D08
:101A4000A84205D01A4DA84202D01A4DA84203D18F
:101A500022F44075CA682A434D6922F080022A4365
:101A600002608A68C2620A688262A04201D098421B
:101A700001D109690163012141610169C90703D0ED
:101A8000016921F001010161F0BD00000000014089
:101A90000004004000080040000C00400004014029
:101AA000004001400044014000480140001800404F
:101AB000001C004000200040012000F095BD00F017
:101AC00005F800F00FF800F023F8FCE710B500F07F
:101AD00059F8FFF72FFE3220FFF7AEFEBDE81040A9
:101AE000FFF71CBEFFF70EBE04480178012901D0A4
:101AF00000207047002101700120704790000020F5
:101B00000249887001200870704700009000002092
:101B100070B51A4C0122E07838B1002501280BD0AD
:101B200002280FD0032820D022E0FFF7DDFFF8B114
:101B3000A0782071E2701BE0FFF7F0FD0220E0705A
:101B4000657115E0607982402079024202D0FFF78A
:101B5000D9FD01E0FFF7E2FD6079401CC0B2607181
:101B6000082805D30320E07002E0FFF7CBFDE57005
:101B7000BDE870400A2001F0EBBA000090000020A0
:101B8000FEE7000000B587B018216846FEF7D0FBDD
:101B90000420FFF719FA08484FF400510A04826143
:101BA000009101210022CDE90112CDE9032169460E
:101BB000FFF722FA07B000BD000802401CB510492B
:101BC0000120CDE90001002380220EA1124801F07E
:101BD00093FE0B480224001DCDE900400023802223
:101BE0000EA1134801F088FE054800230830CDE916
:101BF000004080220FA1144801F07EFE1CBD0000B1
:101C00009C0000205247424C4544546F67676C6506
:101C10005F5461736B000000591800085850436FFF
:101C20006C6C656374696F6E5F5461736B00000068
:101C30004D1C0008556C747261736F6E6963536557
:101C40006E645F5461736B00BF1A0008FEF7EAFD13
:101C5000FFF79EFCAA20FFF753FF962001F078FAC9
:101C6000F8E700000FB4054B10B503A9044A029829
:101C700000F0DAF810BC5DF814FB0000D125000874
:101C8000B40000200907090E002804DB00F1E02061
:101C900080F80014704700F00F0000F1E02080F899
:101CA000141D704702E008C8121F08C1002AFAD1AB
:101CB00070477047002001E001C1121F002AFBD1CC
:101CC000704700002DE9FF5FDDE90220010DDDF81E
:101CD00038B0024318D044F61050A1F2FF3141430E
:101CE0000D140F98012820D0A5EB0B00401C5FEAD3
:101CF000000A4FF00004474EDFF81C91A046504602
:101D000016D5CAF1000728E00F98012443A2012844
:101D100008D0002100980F9BC0E90021C0E90243D0
:101D2000BDE8FF9F6FEA0B01F4E7CBF10000DEE7AF
:101D3000074612E0F80707D0224633464046494698
:101D4000FEF7A8FB804689462246334610461946D0
:101D5000FEF7A0FB04460E467F10002FEAD1DDE916
:101D60000201BAF1000F42464B4602DAFEF792FB3F
:101D700001E0FEF701FC04460E460022284BFEF768
:101D80006BFC03D84FF0FF30014607E00022254BE3
:101D900020463146FEF7D7FAFEF71AFD102409E077
:101DA000002C0ADB0A220023FEF76AFA019B30327C
:101DB0001A55641E50EA0102F2D1641C019AC4F162
:101DC000110314440F9A012A03D0012208430DD1B4
:101DD0000AE0084304D000204FF0110B0F9080E779
:101DE000A3EB0B056D1E0DE05B4504DD4FF000021B
:101DF00005F1010504E003DA4FF00002A5F1010549
:101E0000002AECD000980F99C0E90231C0E90045E2
:101E100086E70000000024400000F03F3000000092
:101E20000000F0430000E03F2DE9FF4F95B09B46D6
:101E30008946064600250FE2252877D1002427464B
:101E4000F84A0121059400E0044316F8013F203BC5
:101E500001FA03F01042F7D130782A2811D06FF040
:101E60002F033078A0F13002092A16D8059A44F0E1
:101E7000020402EB820203EB42021044761C05903E
:101E8000EFE759F8042B0592002A03DA504244F494
:101E90000054059044F00204761C30782E2816D1A8
:101EA00016F8010F44F004042A280DD06FF02F0219
:101EB0003078A0F13003092B09D807EB870302EB38
:101EC0004303C718761CF3E759F8047B761C307877
:101ED0006C280FD006DC4C2817D068280DD06A2853
:101EE00014D104E0742810D07A280FD10DE044F406
:101EF00000140AE044F4801401E044F440147278C1
:101F0000824202D104F58014761C761C3078662853
:101F10000BD013DC582877D009DC002875D0452871
:101F2000F6D04628F4D047281AD19DE118E063285E
:101F300035D0642879D0652812D195E1702873D006
:101F400008DC6728F1D069286FD06E280DD06F2883
:101F500006D1B5E073282CD0752875D0782874D0B8
:101F60005A46179990476D1C75E1C4F30250022838
:101F700009D003280DD0D9F8001004280DD00D6029
:101F800009F1040967E1D9F80010EA17C1E9005224
:101F9000F6E7D9F800100D80F2E70D70F0E719F8B8
:101FA000041B8DF8001000208DF80100EA46012086
:101FB00003E059F804AB4FF0FF3061074FF0000128
:101FC00002D40DE008F101018846B9420FDA8045DC
:101FD000F8DB1AF808100029F4D108E008F1010133
:101FE00088468142FADB1AF808100029F6D10598D4
:101FF0005B46A0EB080721463846179A00F094FA92
:10200000284400EB080507E04DE029E10DE01AF84F
:10201000010B5A4617999047B8F10108F7D25B4671
:1020200021463846179A13E142E00A220092C4F38F
:1020300002524FF0000A022A08D059F804CB032AB2
:102040004FEAEC710AD00DE029E02AE009F107011E
:1020500021F00702F2E802C1914609E00FFA8CFC78
:102060004FEAEC71042A03D14FFA8CFC4FEAEC7171
:10207000002907DA0A460021DCF1000C61EB0201BD
:102080002D2202E0220504D52B228DF80420012206
:1020900003E0E20701D02022F7E7904659E00A2149
:1020A00002E010220DE010214FF0000A00910BE039
:1020B00010224FF0000A44F004040827009203E0C5
:1020C00008224FF0000A0092C4F30252022A05D0FF
:1020D00059F804CB0021032A08D009E009F10701CF
:1020E00021F00702F2E802C1914605E01FFA8CFCDC
:1020F000042A01D10CF0FF0C4FF00008220728D56C
:10210000702806D0009B83F0100353EA0A0305D021
:102110000EE040228DF80420012208E05CEA010272
:1021200006D030228DF804208DF80500022290465A
:10213000009B83F0080353EA0A030AD15CEA010218
:1021400001D1620705D530228DF804204FF0010837
:102150007F1E582804D034A003900EA802900DE0F2
:1021600036A0F9E753466046009AFEF789F88446A0
:102170000398825C0298401E029002705CEA0100A3
:10218000F0D1029806A9081A00F1200A600702D5CA
:1021900024F4803400E00127574502DDA7EB0A0054
:1021A00000E0002000EB0A01009005984144401A2D
:1021B0000590E00306D45B462146179A059800F087
:1021C000B3F90544002706E001A85A46C05D1799F7
:1021D00090476D1C7F1C4745F6DBE0030CD55B4642
:1021E0002146179A059800F09FF9054404E0302035
:1021F0005A46179990476D1C0099481E0090002977
:10220000F5DC08E0029802995A460078491C0291D0
:10221000179990476D1CBAF10001AAF1010AF1DC8F
:1022200065E100000928010030313233343536379A
:102230003839616263646566000000003031323312
:1022400034353637383941424344454600000000B2
:1022500000F058F90544761C307800287FF4ECAD86
:1022600019B02846BDE8F08F620700D4062709F1AF
:10227000070222F0070CFCE80223E14603F00048C5
:102280005FEA080C02D00FF2702C0DE05FEA045CEC
:1022900002D50FF2682C07E05FEAC47C02D00FF28F
:1022A000602C01E0AFF2700C4FF0FF3823F00043D8
:1022B000CDF850C065280CD006DC452809D046284A
:1022C0001DD047283DD13DE0662818D067287ED133
:1022D00038E00021112F01DB112000E0781CCDE94E
:1022E000000106A90EA8FFF7EDFCDDE90F010E9A2B
:1022F00003910021009207F1010A04914DE04FF093
:1023000000400097CDE9011006A90EA8FFF7DAFCFE
:10231000DDE90F0203920E9B11990022DDF80CA05B
:102320000093049211B9791C00EB010AB7EB0A0083
:1023300004D4C0F1FF3007F1010A0490AAEB0700B2
:10234000019044E0012F00DA01270021112F01DD67
:10235000112000E03846CDE9000106A90EA8FFF7DC
:10236000B1FCDDE90F010E9A039100210491009266
:10237000BA4621070CD40399514500DA8A46BAF1CE
:10238000010F05DD009AAAF10101515C302908D046
:10239000B84202DA10F1040F06DA0121CDE901108A
:1023A00015E0AAF10101E9E7002805DC04990144E0
:1023B0000491AAEB000102E0411C514500DD8A4670
:1023C0000499401A401C01904FF0004002902007F1
:1023D00004D40198504501DBCDF8048000208DF82D
:1023E0004F0002980DF14F07B0F1004F25D02B2080
:1023F0000E9002984FF0020800280CDA404202903A
:102400002D200E9007E00A210298FEF73DF93031A9
:10241000029007F8011DB8F10001A8F10108F2DCF3
:1024200002980028EFD1791E0E980870307800F0DD
:10243000200040F0450007F8020D12A8C01B00F173
:1024400007081498007800B1012000EB0A010198F8
:1024500001EBE07105984144401A401E0590E003ED
:1024600006D45B462146179A059800F05DF80544AE
:102470001498007818B15A46179990476D1CE003DC
:1024800024D55B462146179A059800F04DF805447F
:102490001CE00498002807DBDDE90301884203DD26
:1024A0000098405C179901E0179930205A469047F0
:1024B000049805F10105401C04900198401E01900C
:1024C00004D12E205A46179990476D1CBAF100018D
:1024D000AAF1010ADDDC05E017F8010B5A4617994D
:1024E00090476D1CB8F10001A8F10108F4DC5B46CF
:1024F0002146179A0598ABE62D0000002B0000003E
:10250000200000002DE9F041044600251E46174634
:10251000880404D405E039462020B0476D1C641EB1
:10252000F9D52846BDE8F0812DE9F04104460025A3
:102530001E469046C80301D5302700E020278804B6
:1025400004D505E041463846B0476D1C641EF9D5F8
:102550002846BDE8F081000010B544080E4894B04C
:102560000021026842F004020260006800F00400EA
:1025700012900A480090601ECDE901014FF6FF70ED
:10258000CDE903016846FEF7C1FA6846FEF7ECFAAA
:102590000348046014B010BD4038024000080040F9
:1025A00098000020094910B50A684FF6FF7392B2EF
:1025B0009B1A06E00C68944203D20C681C448442C7
:1025C00003D20C68A41A8442F4D310BD240800403E
:1025D000044AC1B251601168C1F3C0110029FAD098
:1025E0007047000000100140034900220A704A6849
:1025F0001044486070470000AC000020FEF792F9DC
:10260000FEF7D6FBFEF7F8FBFFF742F9FEF734FFC3
:10261000A820FFF7A1FF00F005F8FEF72BFF00F060
:10262000FFFDFEE7EFF3058010B16FF00500704786
:102630000448016811B14FF0FF307047012101607B
:1026400000207047600000202DE9F041134C0F4638
:102650000546E6682068001D00F044FC681C07D1B0
:1026600037B12168BDE8F0410D48091D00F08CBC70
:1026700020683544B5424560216805D2A06BBDE8AD
:10268000F041091D00F068BC606B091D00F064FC9E
:10269000A06A854200D2A562BDE8F081100000204A
:1026A000F00500202DE9F041054600F079FC2D4CA5
:1026B000A068401CA06020682B4F10B1606930B347
:1026C0002BE02560A068012827D1002606EB8600B4
:1026D00007EB800000F032FC761C382EF6D323483E
:1026E00000F02CFC2148143000F028FC1F48283052
:1026F00000F024FC1D483C3000F020FC1B4850300A
:1027000000F01CFC194860631430A06305E02068E9
:10271000E96AC06A884200D82560606A401C60622D
:102720006864E86A2169884200D9206100EB800072
:1027300007EB8000291D00F027FC00F051FC6069C8
:1027400000280CD02068E96AC06A884207D208498C
:102750004FF080500860BFF34F8FBFF36F8FBDE81D
:10276000F08100001000002040010020A0050020A2
:1027700004ED00E038B500F013FC104C2068C8B937
:102780000F4800F0DBFB0E48143000F0D7FB0C487C
:10279000E060143020610A4B0020F03B009003F110
:1027A000500210210A2000F049FE206010B105A15E
:1027B00000F098FCBDE8384000F012BC4C0000204E
:1027C000F4060020546D72510000000030B4026C19
:1027D0000B46002A0BD0C1681144C1608468A14235
:1027E00001D30168C16030BC1846FDF77ABD30BC2A
:1027F00070472DE9F041856B174604460026026CB0
:1028000082B1C7B1E068FDF76CFDE168206C091A80
:10281000E1602268914202D2A168081AE060022FAA
:1028200016D017E02068A8B9A06801F03DF9064667
:102830000020A0600EE06068FDF753FD216C606829
:1028400008446060A168884204D32068606001E0A9
:1028500005B16D1E6D1CA5633046BDE8F08110B555
:10286000044690F8590058B101280CD002280FD026
:10287000502080F31188BFF34F8FBFF36F8FFEE7B7
:10288000206B00F0C1FB2046BDE8104000F0BCBB4F
:1028900010BD000010484FF47051420706D0C01D13
:1028A0000D4920F00700411AC1F570510B4A002371
:1028B0000144C2E900030839183A21F00701116008
:1028C0004B600B600B1AC0E9001393604FF000409F
:1028D0005360506170470000D40D00207C00002040
:1028E000144E154CA6F29C474FF08058DFF84C90E0
:1028F00012E000BF00F054FBF068C568281D00F02E
:10290000F1FAA068401EA0606068401E606000F0A0
:1029100067FB2846FFF7A3FF60680028EAD1386804
:102920000128F9D9C9F80080BFF34F8FBFF36F8F2B
:10293000F2E70000DC0500201000002004ED00E0BC
:1029400070B51D46049C51B1C4F80020C4E90F01C4
:102950000121204600F0A6FD84F84C5070BD246093
:10296000F4E700002DE9F05F8846DDE90B94154699
:10297000834691009A460A9EA522206BFDF7D1FC62
:102980006FF00301206B01EB8501084420F007077D
:10299000780707D0502080F31188BFF34F8FBFF323
:1029A0006F8FFEE70025B8F1000F0FD05FF0000039
:1029B000221818F8001082F8341018F8001011B11D
:1029C000401C1028F4D384F8435001E084F83450BC
:1029D000382E00D33726E662C4E91365201D00F0C7
:1029E000B8FA04F1180000F0B4FA2461C6F1380016
:1029F0006462A061656584F858505246594638466D
:102A000000F05AFA2060B9F1000F01D0C9F8004077
:102A1000BDE8F09F30B5114900E011460A688242D6
:102A2000FBD34B685C18844203D14068184448606B
:102A3000084643681C18944209D1084C183C246885
:102A4000A24209D052681A4442600A6812680260C1
:102A5000814200D0086030BD0460F9E77C000020AE
:102A600070B5002441600B4D0061914206D8D11A27
:102A70008269914206D2011D286907E09A4203D279
:102A8000994201D3012403E0011DE86800F064FAD3
:102A9000204670BD4C00002010B5044600F080FABE
:102AA000A06B28B15FF0000400F09AFA204610BD38
:102AB0000124F9E730B589B03C4D6EE00498002858
:102AC00006DADDE90601059A90470498002864DBE0
:102AD000069C606910B1201D00F004FA03A800F004
:102AE000D7F8024604980A2857D2DFE800F0050517
:102AF000052D334A05052D3394F8280040F00100D8
:102B000084F828000599A069059B01442046FFF739
:102B1000A7FF68B3216A2046884794F82800400739
:102B20003BD5002000900598A16900234218194662
:102B3000204601F0C3F8D8B9502080F31188BFF3C4
:102B40004F8FBFF36F8FFEE714F8280F20F00100BE
:102B5000207022E094F8280040F0010084F828005A
:102B60000598A06128B1811813462046FFF778FF29
:102B700013E0502080F31188BFF34F8FBFF36F8FA6
:102B8000FEE794F82800810703D4204600F03CFAC1
:102B900003E020F0010084F82800002204A928683E
:102BA00000F0D4FD002889D109B030BD4C000020D0
:102BB0002DE9FC410F46054600F076FB01A800F028
:102BC00067F80446019818B100F0E6FFBDE8FC8103
:102BD000254EAFB130690068D0B30027291B3A46B3
:102BE000306800F093FA00F0D7FF0028EED11F49BB
:102BF0004FF080500860BFF34F8FBFF36F8FE5E752
:102C0000A542EBD800F0C8FFF0682746C068C4684A
:102C1000201D00F067F994F82800410719D5A06934
:102C20002B4641193A462046FFF71AFFA8B100206B
:102C30000346014600902A46204601F03FF860B95D
:102C4000502080F31188BFF34F8FBFF36F8FFEE7E3
:102C500007E020F0010084F82800216A2046884718
:102C6000B4E70127BAE700004C00002004ED00E0C3
:102C70000648416B096829B1416BC968C968496850
:102C8000816270474FF0FF31FAE70000100000202A
:102C900070B5054600F096FE064E0446B0688442C4
:102CA00003D200F009F8012000E00020286020464F
:102CB000B46070BD4C000020F8B5194D20E0C0682C
:102CC000C4680668201D00F00DF9216A2046884777
:102CD00094F82800400713D5A0693044B04206D9C3
:102CE00024616060211DE86800F036F908E00020EA
:102CF0000346014600903246204600F0DFFF38B11F
:102D0000E86801680029DAD12969C5E90310F8BD2E
:102D1000502080F31188BFF34F8FBFF36F8FFEE712
:102D20004C00002008484068401C4FF0500080F3E1
:102D3000118804D0BFF34F8FBFF36F8FFEE7BFF34F
:102D40004F8FBFF36F8FFEE784000020074CE068D1
:102D5000016841B1C0680021D0F80000FFF728FFEA
:102D6000FFF7A8FEF3E701210020F7E74C00002061
:102D70002DE9F041044600F013F994F9455004F1AF
:102D8000240609E0606A48B1304600F0CDFE08B183
:102D900000F00CFA6D1E6DB2002DF3DC4FF0FF3623
:102DA00084F8456000F01CF900F0FAF894F94450FA
:102DB00004F1100709E0206948B1384600F0B4FE7C
:102DC00008B100F0F3F96D1E6DB2002DF3DC84F84C
:102DD0004460BDE8F04100F003B900002DE9F04186
:102DE0000546002700F060FA324E306808B9FFF758
:102DF00051FD706905424ED1C5B3083568070ED044
:102E000005F00700C0F108000544680707D050200E
:102E100080F31188BFF34F8FBFF36F8FFEE72DB3A1
:102E20007068854237D82348183001460C6801E0A5
:102E300020460C466168A94202D221680029F7D1D8
:102E400031688C4227D007682168016060680837C4
:102E5000411B10290FD96019420708D0502080F378
:102E60001188BFF34F8FBFF36F8FFEE713E0416010
:102E70006560FFF7CFFD61687068401A7060B268E6
:102E8000904200D2B060706901430020C4E90001A3
:102E9000F068401CF06000F07FFE780707D05020FB
:102EA00080F31188BFF34F8FBFF36F8FFEE7384673
:102EB000BDE8F0816400002010B5031F4FF080745E
:102EC0001C601B1F21F001011960191F044B0B60CE
:102ED00014390A60091F6FF0020244380A6010BDFD
:102EE000252D0008D0E9013201699A60D0E901235B
:102EF0005A604A68824201D182684A6000220261B7
:102F00000868401E0860086870470000034B0360B3
:102F100003F15C0008608020106070471C070020EF
:102F2000044B036003F15C0008604FF48070106094
:102F30007047000078090020FEF7BEBD00F10801CF
:102F40004FF0FF32C0E90112C16001610021016050
:102F5000704700210161704730B50B685A1C02D0E0
:102F600000F1080202E0026904E022465468256884
:102F70009D42FAD953684B6099608A60516008613C
:102F80000168491C016030BD42684A6093688B60EB
:102F900093685960916008610168491C016070473D
:102FA000502080F31188BFF34F8FBFF36F8F0A4912
:102FB0004868401C486001280CD10848006810F09F
:102FC000FF0F07D0502080F31188BFF34F8FBFF35E
:102FD0006F8FFEE7704700008400002004ED00E0E2
:102FE0000849486828B1401E486001D180F3118823
:102FF0007047502080F31188BFF34F8FBFF36F8F5E
:10300000FEE700008400002070B500282AD0164D8D
:10301000A0F1080460686969084207D1502080F374
:103020001188BFF34F8FBFF36F8FFEE722683AB16D
:10303000502080F31188BFF34F8FBFF36F8FFEE7EF
:103040008843606000F030F960686968084468602F
:103050002046FFF7DFFC2869401C2861BDE870406E
:1030600000F09ABD70BD0000640000204FF0E02029
:1030700000210161816105494FF47A720968B1FB51
:10308000F2F1491E41610721016170470C000020E7
:1030900010B5FDF7DFF8114910280ED300F1E0203C
:1030A00090F8F0030A78904207D2502080F31188FC
:1030B000BFF34F8FBFF36F8FFEE709480068896841
:1030C00000F4E060884207D9502080F31188BFF3F4
:1030D0004F8FBFF36F8FFEE710BD0000840000200C
:1030E0000CED00E010B5084B002200BF53F8324051
:1030F0001CB1521C082AF9D310BD43F8321003EB5F
:10310000C201486010BD00000001002070B51546E6
:103110000E460446FFF744FF94F944100020491C72
:1031200001D184F8440094F94510491C01D184F878
:103130004500FFF755FFA06B28B92A46314604F138
:10314000240000F051F82046BDE87040FFF710BEA3
:1031500010B5020014D00F48006B38B1502080F336
:103160001188BFF34F8FBFF36F8FFEE700F09CF81D
:1031700000211046FFF768FA00F00EFD002807D185
:1031800005494FF080500860BFF34F8FBFF36F8F3A
:1031900010BD00001000002004ED00E002490A6AA2
:1031A0000260C96841607047100000200149012099
:1031B000C86170471000002010B50C4650B1094995
:1031C00009681831FFF7C8FE2046BDE8104001210C
:1031D000FFF73ABA502080F31188BFF34F8FBFF347
:1031E0006F8FFEE71000002070B514460D4668B1E1
:1031F0000A4909681831FFF7C7FE0CB14FF0FF35D7
:1032000021462846BDE87040FFF71EBA502080F3E3
:103210001188BFF34F8FBFF36F8FFEE710000020C0
:1032200030B587B00024039405AA04A903A8049428
:10323000FFF76CFEDDE903010094CDE901100023E6
:1032400015A11748059A00F084FB164D0028E86286
:103250001FD000F003FD012809D0401C19D15020D7
:1032600080F31188BFF34F8FBFF36F8FFEE75020BD
:1032700080F31188BFF34F8FBFF36F8F4FF0FF3094
:10328000A86201206861EC6007B0BDE8304000F042
:1032900045B807B030BD000049444C45000000006F
:1032A000E1280008100000200248016B491C01635E
:1032B0007047000010000020164810B5016B11B1D6
:1032C0000121C16110BD0021C1610169124A01E003
:1032D000B9B1491E01EB810352F82330002BF7D01E
:1032E00001EB810302EB830202F1080453685B687F
:1032F0005360A34201D15B685360DA6802600161E8
:1033000010BD502080F31188BFF34F8FBFF36F8F34
:10331000FEE7000010000020400100201CB53748E7
:103320000168374A914207D1502080F31188BFF3DA
:103330004F8FBFF36F8FFEE700683149491E884207
:1033400007D1502080F31188BFF34F8FBFF36F8FE9
:10335000FEE72C4908780190FF20087008788DF866
:1033600000009DF800009DF8002000F0F000904261
:1033700007D0502080F31188BFF34F8FBFF36F8FBA
:10338000FEE79DF80000204C00F050002070072060
:10339000A06005E09DF8002052008DF80020401E3E
:1033A0009DF800201206F5D4A060032807D0502015
:1033B00080F31188BFF34F8FBFF36F8FFEE74FF499
:1033C0004070A060019808700C482030016841F4FA
:1033D00070010160016841F070410160FFF746FE35
:1033E00000206060FCF7FEFE0848016841F04041A3
:1033F0000160FCF7E3FE00201CBD000000ED00E0D2
:1034000071C20F4100E400E08400002034EF00E0CE
:1034100010B5502080F31188BFF34F8FBFF36F8F2B
:1034200000F0D6FA18B104494FF08050086000202F
:1034300080F3118810BD000004ED00E038B5049D54
:1034400018B153B1CAB181B120E0502080F3118886
:10345000BFF34F8FBFF36F8FFEE7502080F31188CB
:10346000BFF34F8FBFF36F8FFEE7502080F31188BB
:10347000BFF34F8FBFF36F8FFEE739B1502080F35A
:103480001188BFF34F8FBFF36F8FFEE750241C46A8
:10349000012384F846302B460094FFF751FA20466A
:1034A00038BD000070B50D46040025D0FFF778FD4B
:1034B000D4E90F20216802FB0011A1600021A16363
:1034C000216861600A46D4E90F01401E00FB01211A
:1034D000E16021464FF0FF3001F8440F487004F1DD
:1034E00010008DB1FFF72AFD04F12400FFF726FD3F
:1034F000FFF776FD012070BD502080F31188BFF3E7
:103500004F8FBFF36F8FFEE721690029F0D000F0E5
:103510000BFB0028ECD004494FF080500860BFF34B
:103520004F8FBFF36F8FE3E704ED00E02DE9FF4716
:1035300082B01D468A464FF00008040003D0BAF15D
:10354000000F08D011E0502080F31188BFF34F8F97
:10355000BFF36F8FFEE7206C38B1502080F31188E5
:10356000BFF34F8FBFF36F8FFEE7022D0AD1E06BE1
:10357000012807D0502080F31188BFF34F8FBFF38D
:103580006F8FFEE700F010FA3F4F4FF000094FF049
:10359000805648B9049838B1502080F31188BFF3A1
:1035A0004F8FBFF36F8FFEE7FFF7FAFCA06BE16B65
:1035B000884207D3022D05D00498D0B1B8F1000F8E
:1035C0001AD01EE02A4651462046FFF712F9616ADA
:1035D00019B104F1240000F0A7FA20B13E60BFF356
:1035E0004F8FBFF36F8FFFF7FBFC012006B0BDE8E4
:1035F000F087FFF7F5FC22E06846FFF7CFFD4FF0BC
:103600000108FFF7EDFCFFF74FFEFFF7C9FC94F947
:103610004400401C01D184F8449094F94500401CBA
:1036200001D184F84590FFF7DBFC04A9684600F05F
:1036300029F930B12046FFF79BFB00F0ADFA0020DE
:10364000D4E7FFF7ADFCA06BE16B884213D1FFF725
:10365000C7FC04F110000499FFF7AEFD2046FFF708
:1036600087FB00F099FA00289ED13E60BFF34F8F90
:10367000BFF36F8F98E7FFF7B3FC2046FFF778FBA7
:1036800000F08AFA90E7000004ED00E02DE9F04731
:103690001F4690468946040003D0B9F1000F08D0B8
:1036A00011E0502080F31188BFF34F8FBFF36F8F6D
:1036B000FEE7206C38B1502080F31188BFF34F8FA4
:1036C000BFF36F8FFEE7022F0AD1E06B012807D00E
:1036D000502080F31188BFF34F8FBFF36F8FFEE749
:1036E000FFF7D6FC5020EFF3118680F31188BFF36B
:1036F0004F8FBFF36F8FA06BE16B884206D3022F11
:1037000004D0002086F31188BDE8F08794F9455075
:10371000A06B3A4649462046FFF76BF8681C04D078
:103720006D1C84F845500120ECE7606A0028FAD04F
:1037300004F1240000F0F8F90028F4D0B8F1000FEB
:10374000F1D00121C8F80010EDE700002DE9F7479E
:10375000002683B08A46040003D0BAF1000F08D0D7
:1037600011E0502080F31188BFF34F8FBFF36F8FAC
:10377000FEE7206C38B1502080F31188BFF34F8FE3
:10378000BFF36F8FFEE700F00FF9DFF8F4804FF022
:1037900000094FF0805748B9059838B1502080F3A0
:1037A0001188BFF34F8FBFF36F8FFEE7FFF7F8FB72
:1037B000A56BC5B151462046FFF708F86D1EA563FD
:1037C000206950B104F1100000F0AEF928B1C8F83A
:1037D0000070BFF34F8FBFF36F8FFFF701FC012025
:1037E00006B0BDE8F087059808B11EB106E0FFF706
:1037F000F7FB27E06846FFF7D1FC0126FFF7F0FB57
:10380000FFF752FDFFF7CCFB94F94400401C01D1B7
:1038100084F8449094F94500401C01D184F8459007
:10382000FFF7DEFB05A9684600F02CF800282046CB
:103830000AD0FFF79DFA00F0AFF92046FFF72CF908
:103840000028B3D00020CBE7FFF726F990B104F1B0
:1038500024000599FFF7B0FC2046FFF789FA00F035
:103860009BF90028A2D1C8F80070BFF34F8FBFF3B7
:103870006F8F9BE72046FFF77BFA00F08DF995E705
:1038800004ED00E02DE9F0410C46050011D0C4B173
:10389000FFF786FB174BDA686E682068911B471CA0
:1038A00017D02F681B6A9F4219D0964217D801245F
:1038B00010E0502080F31188BFF34F8FBFF36F8F5C
:1038C000FEE7502080F31188BFF34F8FBFF36F8F57
:1038D000FEE70024FFF784FB2046BDE8F081884224
:1038E00005D9401A20602846FFF758FCF1E7002070
:1038F0002060DCE7100000202DE9FF5F8346DDE952
:103900000E87994616468A469000FFF767FA05002B
:103910001CD05C20FFF762FA040014D0002025635D
:1039200084F85900CDE90240CDE900874B46324684
:1039300051465846FFF716F82046FEF7B3FE012021
:1039400004B0BDE8F09F2846FFF75EFB4FF0FF3064
:10395000F6E7F0B585B0DDE90B640A9DA6B1DCB1F0
:103960005C2700972663022684F85960002604AF7E
:10397000CDE90246CDE90057FEF7F4FF2046FEF7F9
:1039800091FE049805B0F0BD502080F31188BFF37C
:103990004F8FBFF36F8FFEE7502080F31188BFF386
:1039A0004F8FBFF36F8FFEE70548416919B1006B78
:1039B00018B10020704701207047022070470000B6
:1039C000100000200148C06870470000100000206F
:1039D0002DE9F041324C0027206B38B1A069401C22
:1039E000A061FFF7A9FA3846BDE8F081E668761CC9
:1039F000E66013D1606B006838B1502080F3118805
:103A0000BFF34F8FBFF36F8FFEE7606BA16B6163F6
:103A1000A063206A401C2062FFF72AF9A06ADFF841
:103A20008480864209D3606B006890B1606BC06887
:103A3000C568686886420FD2A0622068C06A00EB41
:103A4000800158F82100012800D90127A069F8B1A8
:103A500020E04FF0FF30EFE7281DFFF743FAA86A98
:103A600018B105F11800FFF73DFAE86A21698842AC
:103A700000D9206100EB800108EB8100291DFFF7D0
:103A800083FAE86A2168C96A8842CCD30127CAE769
:103A9000FFF752FAE0690028A5D00127A3E700004C
:103AA000100000204001002070B504004FF000011C
:103AB00033D01B4D2868844207D0502080F31188F2
:103AC000BFF34F8FBFF36F8FFEE7206D38B1401EFD
:103AD0002065E36CE26A9A421FD040B11DE050209D
:103AE00080F31188BFF34F8FBFF36F8FFEE7201D68
:103AF000FFF7F8F9E06CE062C0F13800A061E06A1D
:103B00002969884200D92861064900EB800001EB51
:103B10008000211DFFF738FA0121084670BD000022
:103B2000100000204001002070B5C068C46854B186
:103B300004F118000646FFF7D5F9144D286B50B173
:103B40003146134815E0502080F31188BFF34F8FA2
:103B5000BFF36F8FFEE7201DFFF7C4F9E06A296904
:103B6000884200D928610B4900EB800001EB8000FE
:103B7000211DFFF709FAE06A2968C96A884202D95B
:103B80000120E86170BD002070BD00001000002021
:103B9000C8050020400100202DE9F0472C4D0024ED
:103BA0002746286B38B1FFF7FBF9286B401E2863C6
:103BB000286B40B146E0502080F31188BFF34F8F4F
:103BC000BFF36F8FFEE7A968224E0120D1B3A6F59F
:103BD000916980463068E0B1F068C46804F118006B
:103BE000FFF780F9201DFFF77DF9E06A2969884217
:103BF00000D9286100EB800109EB8100211DFFF74E
:103C0000C3F9E06A2968C96A8842E3D3C5F81C8011
:103C1000E0E70CB1FFF72CF8AC694CB14FEA0806AD
:103C2000FFF7D6FE00B1EE61641EF9D10020A86155
:103C3000E86938B10849012738070860BFF34F8F9A
:103C4000BFF36F8FFFF7CCF93846BDE8F08700006F
:103C500010000020C805002004ED00E010B586B07B
:103C6000FEF788FD114C2068B8B100200390049045
:103C700005AA04A903A8FFF753F9DDE903213720BA
:103C80008DE8070000230AA10B48059AFFF761FEA3
:103C9000606010B106B0012010BD502080F3118883
:103CA000BFF34F8FBFF36F8FFEE700004C00002083
:103CB000546D7220537663004D2D00082DE9FF41AD
:103CC0001E46134602000A9D4FF0000016D0144C09
:103CD0002768002F0FD0CDE900130292062917DACA
:103CE000FFF762FE02284FF000030FD00022694662
:103CF0002068FFF71BFC04B0BDE8F081502080F382
:103D00001188BFF34F8FBFF36F8FFEE72A46EEE7B0
:103D10000023324669463846FFF7B8FCEBE700005F
:103D20004C00002000000000040404000008000013
:103D30000008000000000102030400005C3D0008D0
:103D400000000020B8000000A41C0008143E000879
:103D5000B800002020510000B41C00080100000041
:103D600010000000000000000024F400000000002B
:103D70000000000000000000000000000000000043
:103D80000000000000000000000000000000000033
:103D90000000000000000000000000000000000023
:103DA0000000000000000000000000000000000013
:103DB0000000000000000000000000000000000003
:103DC00000000000000000000000000000000000F3
:103DD00000000000000000000000000000000000E3
:103DE00000000000AAAAAAAA00000000000000002B
:103DF00000000000000000000000000000000000C3
:103E000000000000000000000000000000000000B2
:043E100000000000AE
:040000050800018965
:00000001FF
